{
  "contractName": "Commerce",
  "abi": [
    {
      "inputs": [],
      "stateMutability": "nonpayable",
      "type": "constructor"
    },
    {
      "anonymous": false,
      "inputs": [
        {
          "indexed": false,
          "internalType": "uint256",
          "name": "id",
          "type": "uint256"
        },
        {
          "indexed": false,
          "internalType": "address",
          "name": "owner",
          "type": "address"
        },
        {
          "indexed": false,
          "internalType": "uint256",
          "name": "price",
          "type": "uint256"
        },
        {
          "indexed": false,
          "internalType": "string",
          "name": "content",
          "type": "string"
        },
        {
          "indexed": false,
          "internalType": "bool",
          "name": "sold",
          "type": "bool"
        }
      ],
      "name": "EventSendData",
      "type": "event"
    },
    {
      "inputs": [
        {
          "internalType": "string",
          "name": "_content",
          "type": "string"
        }
      ],
      "name": "uploadData",
      "outputs": [],
      "stateMutability": "payable",
      "type": "function",
      "payable": true
    },
    {
      "inputs": [
        {
          "internalType": "uint256",
          "name": "_id",
          "type": "uint256"
        }
      ],
      "name": "purchesedData",
      "outputs": [],
      "stateMutability": "payable",
      "type": "function",
      "payable": true
    },
    {
      "inputs": [],
      "name": "getCountUploader",
      "outputs": [
        {
          "internalType": "uint256",
          "name": "",
          "type": "uint256"
        }
      ],
      "stateMutability": "view",
      "type": "function",
      "constant": true
    },
    {
      "inputs": [],
      "name": "getContractAddress",
      "outputs": [
        {
          "internalType": "address",
          "name": "",
          "type": "address"
        }
      ],
      "stateMutability": "view",
      "type": "function",
      "constant": true
    },
    {
      "inputs": [
        {
          "internalType": "uint256",
          "name": "_id",
          "type": "uint256"
        }
      ],
      "name": "getUploadData",
      "outputs": [
        {
          "components": [
            {
              "internalType": "uint256",
              "name": "id",
              "type": "uint256"
            },
            {
              "internalType": "address payable",
              "name": "owner",
              "type": "address"
            },
            {
              "internalType": "uint256",
              "name": "price",
              "type": "uint256"
            },
            {
              "internalType": "string",
              "name": "content",
              "type": "string"
            },
            {
              "internalType": "bool",
              "name": "sold",
              "type": "bool"
            }
          ],
          "internalType": "struct Commerce.StructSendData",
          "name": "",
          "type": "tuple"
        }
      ],
      "stateMutability": "view",
      "type": "function",
      "constant": true
    }
  ],
  "bytecode": "0x6080604052600060015534801561001557600080fd5b50336000806101000a81548173ffffffffffffffffffffffffffffffffffffffff021916908373ffffffffffffffffffffffffffffffffffffffff1602179055506112a8806100656000396000f3fe60806040526004361061004a5760003560e01c80631a1b5af01461004f57806332a2c5d01461007a57806350969f44146100a557806352feddce146100c1578063d362d82d146100dd575b600080fd5b34801561005b57600080fd5b5061006461011a565b604051610071919061094b565b60405180910390f35b34801561008657600080fd5b5061008f610192565b60405161009c91906109a7565b60405180910390f35b6100bf60048036038101906100ba9190610b1c565b6101bb565b005b6100db60048036038101906100d69190610b91565b61034d565b005b3480156100e957600080fd5b5061010460048036038101906100ff9190610b91565b61067c565b6040516101119190610d07565b60405180910390f35b60008073ffffffffffffffffffffffffffffffffffffffff163373ffffffffffffffffffffffffffffffffffffffff160361018a576040517f08c379a000000000000000000000000000000000000000000000000000000000815260040161018190610d86565b60405180910390fd5b600154905090565b60008060009054906101000a900473ffffffffffffffffffffffffffffffffffffffff16905090565b600034116101fe576040517f08c379a00000000000000000000000000000000000000000000000000000000081526004016101f590610df2565b60405180910390fd5b6001600081548092919061021190610e41565b91905055506040518060a0016040528060015481526020013373ffffffffffffffffffffffffffffffffffffffff168152602001348152602001828152602001600015158152506002600060015481526020019081526020016000206000820151816000015560208201518160010160006101000a81548173ffffffffffffffffffffffffffffffffffffffff021916908373ffffffffffffffffffffffffffffffffffffffff1602179055506040820151816002015560608201518160030190805190602001906102e4929190610848565b5060808201518160040160006101000a81548160ff0219169083151502179055509050507f0d63a2ea3b1e2ffd7ed47130669462134cf0b514c4f6be89ead66754e67824c36001543334846000604051610342959493929190610f30565b60405180910390a150565b600073ffffffffffffffffffffffffffffffffffffffff163373ffffffffffffffffffffffffffffffffffffffff16036103bc576040517f08c379a00000000000000000000000000000000000000000000000000000000081526004016103b390610d86565b60405180910390fd5b600060015403610401576040517f08c379a00000000000000000000000000000000000000000000000000000000081526004016103f890610fd6565b60405180910390fd5b600154811115610446576040517f08c379a000000000000000000000000000000000000000000000000000000000815260040161043d90611042565b60405180910390fd5b6002600082815260200190815260200160002060010160009054906101000a900473ffffffffffffffffffffffffffffffffffffffff1673ffffffffffffffffffffffffffffffffffffffff163373ffffffffffffffffffffffffffffffffffffffff16036104ea576040517f08c379a00000000000000000000000000000000000000000000000000000000081526004016104e1906110ae565b60405180910390fd5b60026000828152602001908152602001600020600201543414610542576040517f08c379a00000000000000000000000000000000000000000000000000000000081526004016105399061111a565b60405180910390fd5b806002600083815260200190815260200160002060000181905550336002600083815260200190815260200160002060010160006101000a81548173ffffffffffffffffffffffffffffffffffffffff021916908373ffffffffffffffffffffffffffffffffffffffff16021790555034600260008381526020019081526020016000206002018190555060016002600083815260200190815260200160002060040160006101000a81548160ff0219169083151502179055506002600082815260200190815260200160002060010160009054906101000a900473ffffffffffffffffffffffffffffffffffffffff1673ffffffffffffffffffffffffffffffffffffffff166108fc349081150290604051600060405180830381858888f19350505050158015610678573d6000803e3d6000fd5b5050565b6106846108ce565b600082036106c7576040517f08c379a00000000000000000000000000000000000000000000000000000000081526004016106be90611186565b60405180910390fd5b60015482111561070c576040517f08c379a0000000000000000000000000000000000000000000000000000000008152600401610703906111f2565b60405180910390fd5b600260008381526020019081526020016000206040518060a0016040529081600082015481526020016001820160009054906101000a900473ffffffffffffffffffffffffffffffffffffffff1673ffffffffffffffffffffffffffffffffffffffff1673ffffffffffffffffffffffffffffffffffffffff168152602001600282015481526020016003820180546107a490611241565b80601f01602080910402602001604051908101604052809291908181526020018280546107d090611241565b801561081d5780601f106107f25761010080835404028352916020019161081d565b820191906000526020600020905b81548152906001019060200180831161080057829003601f168201915b505050505081526020016004820160009054906101000a900460ff1615151515815250509050919050565b82805461085490611241565b90600052602060002090601f01602090048101928261087657600085556108bd565b82601f1061088f57805160ff19168380011785556108bd565b828001600101855582156108bd579182015b828111156108bc5782518255916020019190600101906108a1565b5b5090506108ca9190610915565b5090565b6040518060a0016040528060008152602001600073ffffffffffffffffffffffffffffffffffffffff16815260200160008152602001606081526020016000151581525090565b5b8082111561092e576000816000905550600101610916565b5090565b6000819050919050565b61094581610932565b82525050565b6000602082019050610960600083018461093c565b92915050565b600073ffffffffffffffffffffffffffffffffffffffff82169050919050565b600061099182610966565b9050919050565b6109a181610986565b82525050565b60006020820190506109bc6000830184610998565b92915050565b6000604051905090565b600080fd5b600080fd5b600080fd5b600080fd5b6000601f19601f8301169050919050565b7f4e487b7100000000000000000000000000000000000000000000000000000000600052604160045260246000fd5b610a29826109e0565b810181811067ffffffffffffffff82111715610a4857610a476109f1565b5b80604052505050565b6000610a5b6109c2565b9050610a678282610a20565b919050565b600067ffffffffffffffff821115610a8757610a866109f1565b5b610a90826109e0565b9050602081019050919050565b82818337600083830152505050565b6000610abf610aba84610a6c565b610a51565b905082815260208101848484011115610adb57610ada6109db565b5b610ae6848285610a9d565b509392505050565b600082601f830112610b0357610b026109d6565b5b8135610b13848260208601610aac565b91505092915050565b600060208284031215610b3257610b316109cc565b5b600082013567ffffffffffffffff811115610b5057610b4f6109d1565b5b610b5c84828501610aee565b91505092915050565b610b6e81610932565b8114610b7957600080fd5b50565b600081359050610b8b81610b65565b92915050565b600060208284031215610ba757610ba66109cc565b5b6000610bb584828501610b7c565b91505092915050565b610bc781610932565b82525050565b6000610bd882610966565b9050919050565b610be881610bcd565b82525050565b600081519050919050565b600082825260208201905092915050565b60005b83811015610c28578082015181840152602081019050610c0d565b83811115610c37576000848401525b50505050565b6000610c4882610bee565b610c528185610bf9565b9350610c62818560208601610c0a565b610c6b816109e0565b840191505092915050565b60008115159050919050565b610c8b81610c76565b82525050565b600060a083016000830151610ca96000860182610bbe565b506020830151610cbc6020860182610bdf565b506040830151610ccf6040860182610bbe565b5060608301518482036060860152610ce78282610c3d565b9150506080830151610cfc6080860182610c82565b508091505092915050565b60006020820190508181036000830152610d218184610c91565b905092915050565b600082825260208201905092915050565b7f4e6f204164647265737300000000000000000000000000000000000000000000600082015250565b6000610d70600a83610d29565b9150610d7b82610d3a565b602082019050919050565b60006020820190508181036000830152610d9f81610d63565b9050919050565b7f596f75722056616c7565206973205a65726f0000000000000000000000000000600082015250565b6000610ddc601283610d29565b9150610de782610da6565b602082019050919050565b60006020820190508181036000830152610e0b81610dcf565b9050919050565b7f4e487b7100000000000000000000000000000000000000000000000000000000600052601160045260246000fd5b6000610e4c82610932565b91507fffffffffffffffffffffffffffffffffffffffffffffffffffffffffffffffff8203610e7e57610e7d610e12565b5b600182019050919050565b6000819050919050565b6000610eae610ea9610ea484610966565b610e89565b610966565b9050919050565b6000610ec082610e93565b9050919050565b6000610ed282610eb5565b9050919050565b610ee281610ec7565b82525050565b6000610ef382610bee565b610efd8185610d29565b9350610f0d818560208601610c0a565b610f16816109e0565b840191505092915050565b610f2a81610c76565b82525050565b600060a082019050610f45600083018861093c565b610f526020830187610ed9565b610f5f604083018661093c565b8181036060830152610f718185610ee8565b9050610f806080830184610f21565b9695505050505050565b7f4e6f20436f756e74205a65726f00000000000000000000000000000000000000600082015250565b6000610fc0600d83610d29565b9150610fcb82610f8a565b602082019050919050565b60006020820190508181036000830152610fef81610fb3565b9050919050565b7f4e6f20436f756e74000000000000000000000000000000000000000000000000600082015250565b600061102c600883610d29565b915061103782610ff6565b602082019050919050565b6000602082019050818103600083015261105b8161101f565b9050919050565b7f5468697320697320596f75722050726f64756374730000000000000000000000600082015250565b6000611098601583610d29565b91506110a382611062565b602082019050919050565b600060208201905081810360008301526110c78161108b565b9050919050565b7f596f75722056616c7565206e6f20457175616c20507269636500000000000000600082015250565b6000611104601983610d29565b915061110f826110ce565b602082019050919050565b60006020820190508181036000830152611133816110f7565b9050919050565b7f596f75722049642069732050726f626c656d0000000000000000000000000000600082015250565b6000611170601283610d29565b915061117b8261113a565b602082019050919050565b6000602082019050818103600083015261119f81611163565b9050919050565b7f596f757220436f756e742069732050726f626c656d0000000000000000000000600082015250565b60006111dc601583610d29565b91506111e7826111a6565b602082019050919050565b6000602082019050818103600083015261120b816111cf565b9050919050565b7f4e487b7100000000000000000000000000000000000000000000000000000000600052602260045260246000fd5b6000600282049050600182168061125957607f821691505b60208210810361126c5761126b611212565b5b5091905056fea26469706673582212203593633cf977cf6926386cdc9f91e808b04e4316d4d4fb9f1d6b6eecec30038964736f6c634300080e0033",
  "immutableReferences": {},
  "source": "// SPDX-License-Identifier: GPL-3.0\r\n\r\npragma solidity >=0.7.0 <0.9.0;\r\n\r\n//pragma solidity >=0.4.21 <8.10.0;\r\n\r\ncontract Commerce {\r\n    address private ContractAddress;\r\n    uint256 private Count = 0;\r\n\r\n    constructor(){\r\n        ContractAddress = msg.sender;\r\n    }\r\n\r\n    modifier ModifierContract {\r\n        require(msg.sender == ContractAddress, \"Your Contract don't use this Address\");\r\n        _;\r\n    }\r\n\r\n    struct StructSendData {\r\n        uint256 id;\r\n        address payable owner;\r\n        uint256 price;\r\n        string content;\r\n        bool sold;\r\n    }\r\n\r\n\r\n    mapping(uint256=>StructSendData) private mapSendData;\r\n\r\n\r\n    event EventSendData (\r\n        uint256 id ,\r\n        address owner ,\r\n        uint256 price ,\r\n        string content ,\r\n        bool sold\r\n\r\n    );\r\n\r\n    function uploadData(string memory _content) external payable {\r\n        require(msg.value > 0, \"Your Value is Zero\");\r\n        Count++;\r\n        mapSendData[Count] = StructSendData(Count , payable(msg.sender) , msg.value , _content,false);\r\n        emit EventSendData(Count , payable(msg.sender) , msg.value , _content , false);\r\n    }\r\n\r\n    function purchesedData(uint256 _id) external payable {\r\n        require(msg.sender != address(0),\"No Address\");\r\n        require(Count != 0,\"No Count Zero\");\r\n        require(_id <= Count,\"No Count\");\r\n        require(msg.sender != mapSendData[_id].owner,\"This is Your Products\");\r\n        require(msg.value == mapSendData[_id].price , \"Your Value no Equal Price\");\r\n        \r\n\r\n        mapSendData[_id].id = _id;\r\n        mapSendData[_id].owner = payable(msg.sender);\r\n        mapSendData[_id].price = msg.value;\r\n        mapSendData[_id].sold = true;\r\n\r\n        payable(mapSendData[_id].owner).transfer(msg.value);\r\n    }\r\n\r\n    function getCountUploader() external view returns(uint256) {\r\n        require(msg.sender != address(0),\"No Address\");\r\n        return Count;\r\n    }\r\n\r\n\r\n    function getContractAddress() external view returns(address) {\r\n        return ContractAddress;\r\n    }\r\n\r\n    function getUploadData(uint256 _id) external view returns(StructSendData memory) {\r\n        require(_id != 0,\"Your Id is Problem\");\r\n        require(_id <= Count,\"Your Count is Problem\");\r\n        return mapSendData[_id];\r\n    }\r\n\r\n\r\n}",
  "sourcePath": "C:\\bc_shop\\contracts\\Commerce.sol",
  "compiler": {
    "name": "solc",
    "version": "0.8.14+commit.80d49f37.Emscripten.clang"
  },
  "schemaVersion": "3.4.7",
  "updatedAt": "2022-06-20T07:28:58.085Z",
  "networkType": "ethereum",
  "devdoc": {
    "kind": "dev",
    "methods": {},
    "version": 1
  },
  "userdoc": {
    "kind": "user",
    "methods": {},
    "version": 1
  }
}